:100000000C94F7010C942F020C942F020C94881C72
:100010000C942F020C942F020C942F020C942F029C
:100020000C942F020C942F020C94BD230C948F245B
:100030000C94951E0C942F020C942F020C942F02FA
:100040000C942F020C942F020C942F020C942F026C
:100050000C942F020C94391F0C942F020C942F0235
:100060000C942F020C942F020C942F020C942F024C
:100070000C942F020C942F020C942F020C942F023C
:100080000C942F020C942F020C942F020C942F022C
:100090000C942F020C942F020C942F020C942F021C
:1000A0000C942F020C942F020C942F024605460547
:1000B00072057205DA05F8051007100703069C069D
:1000C000AD06AD06FC2423251B2623251B266F2504
:1000D00092251B26E925F825340036003700130049
:1000E0001C0004001200080018000C00330014006B
:1000F0000D000E001B001150025500000000000012
:1001000009000A00060015000F0007000B00170089
:1001100011001600050010001A0019001D002C0027
:100120000855000000000000000024002500260003
:10013000270000002100220023002E0039001E00AD
:100140001F0020002D001050165C00000000000071
:100150004A004E004B004D002A002B005000510079
:1001600052004F00000000000000000000002800C6
:10017000125000000000000001002F002F0230028A
:1001800000001E021F02200221022202010038008C
:1001900038020000000010500000000000000000C5
:1001A0002302260227023000350224022D002E00F1
:1001B0003100350025022D022E02310201004C00D3
:1001C000135000000000000001003A003B003C001A
:1001D000430001003D003E003F004400010040009C
:1001E0004100420045000100010000000000000045
:1001F0000100F900FA000100005CEF00EE00ED00E4
:10020000F00049000100F100F200010001000100CE
:1002100001000000000000000000000000000000DD
:100220002A2B280000000000000000000000000051
:1002300000000029000000002C1E3420212224345C
:100240002627252E362D3738271E1F20212223242E
:1002500025263333362E37381F0405060708090ACA
:100260000B0C0D0E0F101112131415161718191A66
:100270001B1C1D2F3130232D350405060708090AE4
:100280000B0C0D0E0F101112131415161718191A46
:100290001B1C1D2F3130354C0000000000000000F9
:1002A000000000000000000000000000000000004E
:1002B0000000000000000000000000007E0F00D4DD
:1002C000FFFFFFC7000000780E03430072006100CB
:1002D000640069006F000000080344005000420001
:1002E00000000403090409023B00020100A0FA090E
:1002F0000400000103010100092111010001224055
:100300000007058103080001090401000103000042
:1003100000092111010001227B0007058203200052
:100320000112010002000000088BC8883901000199
:1003300002000105010902A10185020901A10005D0
:100340000919012908150025019508750181020583
:1003500001093009311581257F950275088106094B
:10036000381581257F950175088106050C0A38022C
:100370001581257F950175088106C0C0050109809A
:10038000A101850319012AB700150126B7009501BF
:1003900075108100C0050C0901A101850419012A0D
:1003A000A002150126A002950175108100C005016B
:1003B0000906A101050719E029E71500250195089F
:1003C000750181029501750881010507190029FF52
:1003D000150026FF009506750881000508190129FA
:1003E00005950575019102950175039101C01124D0
:1003F0001FBECFEFDAE0DEBFCDBF04B603FE18C0EC
:100400008091B8029091B902A091BA02B091BB025A
:100410008730904BA740B04B59F41092B80210921D
:10042000B9021092BA021092BB02E0E0F8E309951B
:1004300011E0A0E0B1E0E2EDFDE402C005900D9214
:10044000AE3BB107D9F722E0AEEBB1E001C01D929F
:10045000A83BB207E1F70E940F160C94E7260C9414
:1004600000009C013A9521153F4130F5BC016627FB
:100470007270AC01442754709C012227387094FF9D
:100480000FC090FF02C080E101C080E0672B09F03F
:100490008062452B09F08064232B79F080680895F1
:1004A000892F8170672B09F08260452B09F08460E9
:1004B000232B19F08860089580E00895CF93DF938F
:1004C000EB010E943102FE01DF91CF910994CF939D
:1004D000DF93EC01805E9109089710F0209719F4E2
:1004E0006DEF74E002C068E877E0CE010E945E0222
:1004F0008C2FDF91CF910C945304CF93DF93EC01B9
:100500000E94A904CE01805E9109089710F02097FF
:1005100019F464E075E002C06FE877E0CE01DF9186
:10052000CF910C945E02CF93DF93EC010E9467029F
:10053000C933D10549F42FEF87EE93E02150804075
:100540009040E1F700C00000CE01DF91CF910C9404
:100550007D0281E0089581E008950C94AB02089536
:100560000C94AF021F93CF93DF9300D000D01F9263
:10057000CDB7DEB749835A836B833091C10189813E
:100580009A81311114C0662359F0222349F00E9448
:100590005D09182F682F89819A810E94040903C080
:1005A0000E943009182F69817A81812F04C00E942E
:1005B0005D0969817A810F900F900F900F900F90D5
:1005C000DF91CF911F910C948B10FC01262F40815D
:1005D00051816281738184810C94B20281E008951B
:1005E000CF93DF93EC0160E00E94E502BE01DF9152
:1005F000CF910C94B0020C9417120C94131208951E
:100600000E94AE070E94FF022FEF84E39CE021507E
:1006100080409040E1F700C000000C945F1F0F93F2
:100620001F93CF93DF938C0161E00E94E502EC0100
:10063000B8010E94AD02882309F444C0B801CE017C
:100640000E9489198823F1F1B801CE010E94931B01
:100650008823C1F1B801CE010E94A719882391F126
:10066000B801CE010E94EF1A882361F1F80182815E
:10067000882309F1CB358DE5D807C1F050F4C115B9
:10068000FCE5DF0781F0CF3DDC45A9F40E94970E21
:1006900019C0CC35EDE5DE0761F0CD35DD4559F407
:1006A0000E94DA0D08C00E9400030CC00E94E30DF6
:1006B00002C00E94E60DC801DF91CF911F910F91FA
:1006C0000C94A90280E0DF91CF911F910F910895C2
:1006D0000E94781E0C94F1030E94F4030C947E1E79
:1006E000DF92EF92FF920F931F93CF93DF93E82F48
:1006F000F0E0E85EFD4FD490282F269526952695AC
:1007000030E0F901E854FD4F0491877010E0082EA5
:1007100002C0159507950A94E2F701701127F901B7
:10072000E855FD4FE490F12C082E02C0F594E794B3
:100730000A94E2F791E0E922FF24F901E856FD4F1F
:10074000C491D0E002C0D595C7958A95E2F7C170F3
:10075000DD270115110519F081EE0E945304E11403
:10076000F10419F086EE0E9453048D2D0E94F404CA
:10077000EF2819F086EE0E94A904012B19F081EEF2
:100780000E94A904CD2B51F08CE2DF91CF911F91F3
:100790000F91FF90EF90DF900C94F404DF91CF91D4
:1007A0001F910F91FF90EF90DF900895982F9F7009
:1007B0009A50963010F0805D01C0895A0C947003F5
:1007C00008950C94E00381E008950C94E3030895E8
:1007D000CF93C82F0E94E1038C2F0E94E503CF9195
:1007E000089580E00C94E8030E94B31D0C94E80384
:1007F0000E94B31D9091C001891721F08093C00120
:100800000C94E8030895CF93DF93CDB7DEB72B9711
:100810000FB6F894DEBF0FBECDBF4F8358876987F0
:100820007A878B8761110E94260D9E012F5F3F4FB3
:1008300086E0F90111928A95E9F785E0FE01379685
:10084000D90101900D928A95E1F789819A814C81B5
:100850005D81452B31F09F3F31F491E08F3F19F4DA
:1008600003C091E001C090E090FF09C049815A8126
:100870006B817C818D819E810E94440C05C0C901E1
:100880000E94EE028111F2CF2B960FB6F894DEBFD4
:100890000FBECDBFDF91CF910895FC018081918182
:1008A0000E949F090895CF93882309F450C0C82F50
:1008B0008CEF8C0F813AD0F46C2F809102019091D3
:1008C00003010E941A1E882349F06C2F80910201B7
:1008D000909103010E94521E0E94480D6C2F80913E
:1008E0000201909103010E94501E0CC080E28C0F07
:1008F000883058F4C77081E001C0880FCA95EAF7C4
:100900000E94060DCF910C94480DEBE5EC0FE330FF
:1009100040F4F0E0E857FE4F808190E0CF910C94D6
:10092000E21DE8E5EC0FE73150F4F0E0EE0FFF1FB9
:10093000E65AFE4F80819181CF910C94F81DCD3EF7
:1009400030F08C2F0E949416CF910C946617CF91A3
:100950000895882389F19CEF980F913A40F4682F0D
:1009600080910201909103010E94521E0DC090E2FD
:10097000980F983058F4877091E001C0990F8A95CC
:10098000EAF7892F0E940C0D0C94480D9BE5980FF7
:10099000933020F480E090E00C94E21D98E5980FED
:1009A000973120F480E090E00C94F81D8D3E20F00B
:1009B0000E94EF160C94661708951F93CF93DF9350
:1009C000182FEB010E945304209741F08FE99FE01C
:1009D0000197F1F700C000002197F6CF812FDF913A
:1009E000CF911F910C94A904893319F060E070E055
:1009F00002C060E570E00C94DD04882321F00E94C1
:100A0000060D0C94480D0895882321F00E940C0DCA
:100A10000C94480D0895CF92DF92EF92FF920F93BE
:100A20001F93CF93DF937C01D62FC72FFC01128138
:100A3000058102950F700E94FC0C8823B9F01123E8
:100A4000A9F08C2F807F803421F080E28D0F8830D8
:100A500068F080918D0282FD09C082E00E94A80D9D
:100A60000E94FC0C91E0D82ED92601C0D12CCC2EAE
:100A7000C2948FE0C8228C2D90E08C30910508F054
:100A8000CFC1FC01EA5AFF4F0C9475268C2F807F52
:100A9000CF70882311F0C295C07F112399F0CC2329
:100AA00009F4AAC180E28D0F883010F0D11104C082
:100AB0008C2F0E94060D03C08C2F0E94190D0E94DE
:100AC000480D9AC18D2F0E94A904CC2309F4A8C116
:100AD00080E28D0F883038F1DD2329F18C2F0E94C0
:100AE0001F0D24C08C2F807FCF70803211F0C295F3
:100AF000C07FDD2319F0D130A1F13DC080918D027E
:100B000082FF17C0112349F0CC2329F08C2F0E94BB
:100B1000060D0E94480D80E070C180E00E94A9048B
:100B2000CC2309F47DC18C2F0E940C0D0E94480D2E
:100B300077C1112371F0002341F0013031F40E949C
:100B4000290D8C2B0E94310D6BC10E94290D8C2B1D
:100B50001DC0002319F0013009F462C10E943E0D4E
:100B600025C0112321F0063008F05AC10EC005300F
:100B700008F056C11BC0112361F0002331F0F701CA
:100B8000858180FF39C18F7085838C2F0E94FD0481
:100B900047C1002359F0D93309F03FC1FFEF07EEF9
:100BA00013E0F15000401040E1F735C18C2F0E9456
:100BB000040536C18C2F86958695837019F0813097
:100BC00061F02EC1112321F08D2F9C2F937002C054
:100BD00080E090E00E94E21D2BC1112321F08D2FB7
:100BE0009C2F937002C080E090E00E94F81D20C10D
:100BF0008D2F112319F00E94941602C00E94EF1647
:100C00000E94661715C18C2F837009F047C011111F
:100C10000BC12D2F229526952770220F220F6D2FA5
:100C20006F70862F90E0A0E0B0E0022E04C0880F25
:100C3000991FAA1FBB1F0A94D2F7D4FF10C04FE020
:100C400050E060E070E004C0440F551F661F771F3E
:100C50002A95D2F7409550956095709503C040E075
:100C600050E0BA01C695C695C3708A019B01082B56
:100C7000192B2A2B3B2BC901B801C23049F058F47B
:100C8000C13019F00E941A08CFC00E940808CCC0D9
:100C90000E942C08C9C00E940608C6C0112319F082
:100CA0008C2F817001C08695882309F4BDC02D2F3B
:100CB000229526952770220F220F6D2F6F70862F99
:100CC00090E0A0E0B0E0022E04C0880F991FAA1F98
:100CD000BB1F0A94D2F7D4FF10C04FE050E060E091
:100CE00070E004C0440F551F661F771F2A95D2F786
:100CF000409550956095709503C040E050E0BA0172
:100D0000C695C695C3708A019B01082B192B2A2B07
:100D10003B2BC901B801C23049F058F4C13019F079
:100D20000E94DF0881C00E94CD087EC00E94F108A9
:100D30007BC00E94400878C0CF70112339F08C2FFF
:100D40000E9466088D2F0E94FD046EC08D2F0E94A8
:100D500004058C2F0E94870867C0D23F21F128F438
:100D6000D03F41F0D13FC1F043C0D33F19F1D43F50
:100D700079F03EC0112341F0053008F051C08C2FAE
:100D80008F710E94AC084CC0063008F049C0F7CF04
:100D900080918D0282FF18C0112339F08C2F8F7142
:100DA0000E9466083DC01123C9F38C2F8F710E94E9
:100DB000870836C0112329F08C2F8F710E945108AB
:100DC0002FC00E944C082CC0112349F0CF718C2FEA
:100DD0000E94660863E08C2F0E948D0D21C081E087
:100DE0000E94A80D0230E0F082E00E94A80D18C019
:100DF000112331F0002391F28D2F0E94530410C073
:100E0000002399F2D93349F41FEF27EE33E0115054
:100E100020403040E1F700C000008D2F0E94A9045F
:100E200088EF8C0D843020F40E94B31D0E94E803EB
:100E3000DD20C9F00E94F80C80FD15C0F701128278
:100E40000E94F20C0E946608C7010E9454070E948B
:100E5000F20CDF91CF911F910F91FF90EF90DF90F7
:100E6000CF900C948708DF91CF911F910F91FF9045
:100E7000EF90DF90CF9008950F931F93CF93DF9360
:100E8000EC01688179818A810E94AA098C010E9403
:100E900003090E94F407B801CE010E940B05DF91FF
:100EA000CF911F910F910895CF93DF93EC0198811B
:100EB00089812B813C81232B31F08F3F31F481E0FC
:100EC0009F3F19F403C081E001C080E080FD1DC098
:100ED000CE010E940F03811110C00E94FC0C8823D8
:100EE000A1F08A81882389F080918D0282FD0DC056
:100EF00082E0DF91CF910C94A80DCE010E943C07B7
:100F0000CE01DF91CF910C94F002DF91CF91089543
:100F1000882321F00E94190D0C94480D0895882310
:100F200021F00E941F0D0C94480D089580E090E080
:100F30000E94E21D80E090E00E94F81D0E94260DB4
:100F40000E94480D0E9497180C9466178091020128
:100F5000909103010E94541E0C9496070E94160D56
:100F60000C94A60792959F70963079F010F49250E9
:100F700001C09A50923068F4803F69F018F4883EBE
:100F800040F409C0843F29F406C0883E20F0813F28
:100F900011F080E0089581E00895FC018081918145
:100FA0000E949F090E94B2070895CF93DF9300D05B
:100FB00000D01F92CDB7DEB70F900F900F900F901B
:100FC0000F90DF91CF910895CF93DF9300D000D0A1
:100FD00000D0CDB7DEB726960FB6F894DEBF0FBEB1
:100FE000CDBFDF91CF910895089508950C94F50732
:100FF0000C94F6070E94F8076093DF017093E001FC
:101000008093E1019093E2010C9496070C94FA0707
:101010000F931F930091DF011091E0012091E101F6
:101020003091E201602B712B822B932B1F910F913A
:101030000C94FA070F931F930091DF011091E001C8
:101040002091E1013091E2016023712382239323F7
:101050001F910F910C94FA070F931F930091DF01DA
:101060001091E0012091E1013091E20160277127A8
:10107000822793271F910F910C94FA070C94F50780
:101080000E943E086093DB017093DC018093DD01D8
:101090009093DE010C94960760E070E0CB010C9415
:1010A00040080F931F9341E050E060E070E08A0138
:1010B0009B0104C0000F111F221F331F8A95D2F716
:1010C000C901B8011F910F910C9440080F931F9311
:1010D00041E050E060E070E004C0440F551F661F1F
:1010E000771F8A95D2F78091DB019091DC01A09166
:1010F000DD01B091DE018A019B01082B192B2A2BFF
:101100003B2BC901B8011F910F910C9440080F931C
:101110001F9341E050E060E070E004C0440F551FB1
:10112000661F771F8A95D2F7409550956095709508
:101130008091DB019091DC01A091DD01B091DE0195
:101140008A019B01082319232A233B23C901B801E3
:101150001F910F910C9440080F931F9341E050E0B2
:1011600060E070E004C0440F551F661F771F8A952A
:10117000D2F78091DB019091DC01A091DD01B0916B
:10118000DE018A019B01082719272A273B27C9016D
:10119000B8011F910F910C9440080F931F93009179
:1011A000DB011091DC012091DD013091DE01602B2B
:1011B000712B822B932B1F910F910C9440080F934E
:1011C0001F930091DB011091DC012091DD01309132
:1011D000DE0160237123822393231F910F910C94CE
:1011E00040080F931F930091DB011091DC012091C7
:1011F000DD013091DE0160277127822793271F913F
:101200000F910C944008089524E0929F900D1124B2
:10121000890FE82FE695E695E695877051E001C0C5
:10122000550F8A95EAF785E0E89FF0011124EE5307
:10123000FE4F20E030E070E04081CB01022E02C082
:10124000969587950A94E2F7817081958427852386
:10125000842781932F5F3F4F2530310569F708952B
:1012600024E0929F900D1124890F682F6695669552
:101270006695982F977085E0689FB001112440E033
:1012800050E080E0FB01E40FF51FEE53FE4F20819C
:1012900030E0092E02C0369527950A94E2F72170B6
:1012A0003327042E01C0220F0A94EAF7822B4F5FE6
:1012B0005F4F4530510531F70895BF92CF92DF92CD
:1012C000EF92FF920F931F93CF93DF938C01C09007
:1012D000DB01D090DC01E090DD01F090DE01809137
:1012E000DF019091E001A091E101B091E201C82AF3
:1012F000D92AEA2AFB2ACFE1D0E0D701C6010C2E79
:1013000004C0B695A795979587950A94D2F780FD66
:1013100004C0219790F7B12C07C0BC2EB8018C2FC8
:101320000E949E100197A9F38B2DDF91CF911F9101
:101330000F91FF90EF90DF90CF90BF900895CF93E3
:10134000DF93EC010E945D09BE010E949E10DF91B7
:10135000CF9108951F93CF93DF93EB019091C1013B
:10136000992321F0CB010E949F0913C0882349F0E3
:10137000CB010E945D09182F682FCE010E9404093D
:1013800004C0CB010E943009182FBE01812F0E949A
:101390009E10DF91CF911F9108951F93CF93DF93FC
:1013A000C091E30116E08091E401C81799F0D0E004
:1013B0001C9FF0011D9FF00D1124EB51FE4F408149
:1013C000518162817381848195810E94E407219615
:1013D000C770E9CFDF91CF911F9108954091150219
:1013E00050911602609117027091180280911902B3
:1013F00090911A020C94E407EF92FF920F931F93BF
:10140000CF93DF9380911A0282958F7009F065C0A7
:1014100080911702882309F460C08091E301F09065
:10142000E40110911502009116026091180270916A
:10143000190291E01F3F09F090E0C0910001D091A6
:101440000101292F96E0E92E8F1509F446C0611598
:10145000710521F00F3F21F030E003C031E001C001
:10146000322F90E030FD36C0E89EF001E99EF00D8D
:101470001124DF01AB51BE4F11963C9111973013EF
:1014800029C03C91311326C012963C91129731111C
:1014900021C013964D915C911497461B570B4C1726
:1014A0005D07C0F480911A028F70806180931A02E8
:1014B000E651FE4F80818F708061808385E192E0EC
:1014C0000E945407DF91CF911F910F91FF90EF90F1
:1014D0000C94CD0901968770B7CFDF91CF911F9102
:1014E0000F91FF90EF9008959F92AF92BF92CF928D
:1014F000DF92EF92FF920F931F93CF93DF93CDB7BD
:10150000DEB761970FB6F894DEBF0FBECDBF8C017A
:1015100085E0F801DE011D9601900D928A95E1F7B4
:10152000D8011296EC9090911502E091160220914C
:101530001802309119022115310531F0EF3F31F4D5
:1015400081E09F3F19F403C081E001C080E0B82F23
:10155000B1709B2E80FD47C1D8014C9111965C91D2
:1015600011971396AD90BC90149785E1C82E82E038
:10157000D82EF0901702B501621B730B2091000169
:1015800030910101FF2009F4D9C080911A0262173D
:10159000730708F095C0282F207F09F052C05E1312
:1015A00013C0491311C0FE2CE1100EC08F70806172
:1015B00080931A020E94EE09C6010E94540780918E
:1015C0001A02F80185834DC1AB2831F05F3F31F439
:1015D00081E04F3F19F403C081E001C080E080FD4D
:1015E00003C081E08E2502C080E090E0F82FF1700A
:1015F000FF2E80FF1CC08091E3012091E40136E0C2
:10160000821709F40BC190E0389FF001399FF00D6B
:101610001124EB51FE4F6181561306C060814613C1
:1016200003C06281E61203C001968770E9CFFE2CE9
:10163000EE2009F416C180911A02816080931A028B
:1016400054C05E1306C0491304C0E11002C0F80183
:1016500099C0C8010E94CD07882361F1EE2051F1A5
:1016600020911A02822F82958F7090E0029774F079
:10167000809115029091160298878F831986BB86F8
:10168000AA862C87CE0107960E94540786E0F801AF
:10169000A5E1B2E001900D928A95E1F70E94FC0964
:1016A0000E94EE090AC05E1711F1C8010E94CD0721
:1016B00081112CC0C8010E945407FF24F394D1C0AB
:1016C000282F207F81F77A2DB98AA88A6E2D8989E3
:1016D0000E94D50785E192E00E94540786E0D6017A
:1016E0001D928A95E9F70E94EE09F12CBAC04913C0
:1016F000DCCFE110DACFF8018583C8010E945407DE
:1017000086E0D6011D928A95E9F7ABC0EE2091F2F2
:1017100020911A02822F82958F7090E002970CF42C
:10172000B5CF80911502909116029A8389831B820E
:10173000BD82AC822E83CE010196A6CF62177307BD
:1017400008F044C0FE2CEE2009F4B4CF5E1330C084
:1017500049132EC020911A0220FD21C0822F8295AC
:101760008F70482F50E041155105C9F0F8012583CD
:101770004F30510541F08F5F982F9295907F822FC7
:101780008F70892B8583C8010E94540786E0F80179
:10179000A5E1B2E001900D928A95E1F73CC086E0A8
:1017A000F801A5E1B2E001900D928A95E1F759C0E8
:1017B000C8010E94CD07811169CF80911A02816012
:1017C00080931A02C8010E9454074BC07A2DB98A2F
:1017D000A88A6E2D89890E94D50786E0D6011D92C0
:1017E0008A95E9F718C0EE2009F464CFC8010E9479
:1017F000CD07F82E882309F45DCF86E0F801A5E136
:10180000B2E001900D928A95E1F785E192E00E94A5
:101810004D040E94FC090E94EE0923C04D875E879B
:101820008D859E850E949F09292F22952F70223039
:1018300028F49F7039F0811105C00BC0243028F4C2
:101840009F7049F4805E883020F0C8010E945407E0
:101850009F2CF92C06C0D80115969C91907F91F78A
:10186000F8CF8F2D61960FB6F894DEBF0FBECDBFB7
:10187000DF91CF911F910F91FF90EF90DF90CF906C
:10188000BF90AF909F9008951F93CF93DF93CDB7F4
:10189000DEB72C970FB6F894DEBF0FBECDBF4F83D7
:1018A000588769877A878B879C87CE0107960E9425
:1018B000740A8823D1F09F8188852A853B85232B54
:1018C00031F08F3F31F481E09F3F19F403C081E094
:1018D00001C080E080FD47C04F81588569857A85C9
:1018E0008B859C850E94E4073EC086E0FE0137960A
:1018F000DE01119601900D928A95E1F7FF81E8854E
:101900006A857B856115710531F0EF3F31F481E027
:10191000FF3F19F403C081E001C080E080FD23C0D7
:101920002091E40130E0C901019687709927409128
:10193000E30150E084179507F1F1F983EA837D8391
:101940006C8396E0929FD001939FB00D1124AB5110
:10195000BE4FFE01319601900D929A95E1F780936A
:10196000E4010E94CD0916E08091E3019091E40129
:10197000891771F1189FC00111248B519E4F0E944D
:10198000740A882329F1E091E3011E9FF0011124DC
:10199000EB51FE4F40815181628173818481958139
:1019A0000E94E4078091E30190E0019687709927F7
:1019B0008093E301D9CF0E94AE071092E401109208
:1019C000E301E5E1F2E086E0DF011D928A95E9F7A7
:1019D0002C960FB6F894DEBF0FBECDBFDF91CF912E
:1019E0001F91089580912302859585958595089589
:1019F000809123028770089590912302977081E06F
:101A000009F480E0089580912E02089590912E02AD
:101A1000892B80932E020895809590912E02892320
:101A200080932E02089580932E02089510922E0224
:101A3000089590912D02892B80932D020895809511
:101A400090912D02892380932D02089510922D02EA
:101A5000089580912402089508950C942C0D0C94FF
:101A60002D0D90918D0292FD08C09091240298173F
:101A700021F0809324020C942F0D0895809124026C
:101A8000882329F01092240280E00C942F0D0895F1
:101A9000CF93DF93E0910201F091030180912E0238
:101AA0008083E0910201F0910301908180912D02E9
:101AB000892B808380912402882381F0E0910201A8
:101AC000F09103019081892B808380910201909194
:101AD00003010E940E1E81110E943E0DC091020161
:101AE000D091030148E050E06BE172E0CE010E942A
:101AF0008F26892B69F088E0FE01ABE1B2E001900E
:101B00000D928A95E1F7CE01DF91CF910C94C91D1A
:101B1000DF91CF9108950C942C0D90918D0292FD40
:101B200010C098E0899F90011124262B2093230256
:101B30000E946608809123028595859585950C9471
:101B40008B0D0C9466081092230280E00C948B0D90
:101B5000209123028095822380932302982F9770EF
:101B600099F430E0482F082E000C550B2417350748
:101B700059F090918D0292FD07C0859585958595C8
:101B80000E9487080C94A30D089590918D0292FBFA
:101B9000222720F9281769F080FB92F990938D0293
:101BA00080918C0290918D020E94130E82E00C9421
:101BB000A80D089580918D0282FB882780F991E01D
:101BC00089270C94C50D81E00C94C50D80E00C9420
:101BD000C50D6FEF7FEF80E090E00C94D12680E0A0
:101BE00090E00E94AD2621E0893E9E4F09F020E062
:101BF000822F089582E090E00C94A52683E090E087
:101C00000C94A526CF9384E090E00E94A526C82FCF
:101C100082E290E00E94A5262C2F30E0A901582BEB
:101C2000CA01CF910895CF93C92F682F84E090E027
:101C30000E94B3266C2F82E290E0CF910C94B326E1
:101C4000AB01BC018FE090E00C94C526AB01BC0158
:101C500083E190E00C94C52660E070E0CB010C9429
:101C6000260E60E070E0CB010E94200E0C942C0E3A
:101C700069EE7EEF80E090E00E94D12660E082E095
:101C800090E00E94B32660E083E090E00E94B326DB
:101C90001092DF011092E0011092E1011092E20136
:101CA00060E084E090E00E94B32660E082E290E091
:101CB0000E94B32660E085E090E00E94B32660E0D9
:101CC00086E090E00E94B3266FEF87E090E00E94EC
:101CD000B32640E050E0BA0188E090E00E94C526BB
:101CE00060E08DE090E00E94B32640E050E0BA0151
:101CF00088E190E00E94C52660E087E190E00E94C4
:101D0000B32640E050E0BA018CE190E00E94C52685
:101D100060E070E080E290E00E94D12640E050E078
:101D2000BA0188E190E00E94C5260C94310E0C9413
:101D3000380E682F8EE090E00C94B3260E94021FAC
:101D400060933B0270933C0280933D0290933E026D
:101D500060933702709338028093390290933A026D
:101D6000089585B7806885BF85B7806885BF089569
:101D70000C94D01308950C94BA0E0C94BA0E0C94D3
:101D8000BD0E0C94BA0E0C94C10E0C94BA0E0E94A7
:101D9000B10E8BEB91E10E94A91D0E94C50E0C941F
:101DA000C30E0E94BB0E0C94BA0E0E94E5110E9455
:101DB000E7030C94E5180E94ED1E0E947A110E9420
:101DC000EA130E94E8120E94D50E0E94A5180E94F4
:101DD000F4130C94BF0E8F929F92AF92BF92CF924A
:101DE000DF92EF92FF920F931F93CF93DF93CDB7C4
:101DF000DEB72A970FB6F894DEBF0FBECDBF0E94A4
:101E00004513982E81110E949E0E8FE2A82E82E02B
:101E1000B82E00E010E0802E802F0E940912D82EEC
:101E2000F501C1905F01C826B1F40F5F1F4F083064
:101E3000110589F78FEF89838A831B820E94F61E22
:101E40008160782F9D838C8349815A816B818D813C
:101E50000E9403042FC080913F0281FD0E940F1257
:101E6000E12CFF24F3948C2D8F21F1F00E94B80E09
:101E7000882399F0EE828F82DF2081E009F480E0F0
:101E800088870E94F61E8160782F9A8789874E8105
:101E90005F8168858A850E940304F801E15DFD4F3A
:101EA0008081F826F08206C0E394FF0CF5E0EF1283
:101EB000DACFBBCF81E0911001C080E02A960FB647
:101EC000F894DEBF0FBECDBFDF91CF911F910F9170
:101ED000FF90EF90DF90CF90BF90AF909F908F904A
:101EE00008950E94EB0E0E94D0130E9484170C9458
:101EF000F803CF93DF930E94A310EC01811521E535
:101F0000920708F045C0811530E5930708F094C0AA
:101F1000883E910528F5803E910508F0F8C0883A82
:101F2000910570F4853A910508F07CC081309105E7
:101F300009F475C008F4E8C0049708F0E8C0E4C0EC
:101F40008F3B910508F0E0C0C85AD0E0CC0FDD1FF0
:101F5000C557DE4F0990D881C02DCE019464D8C0FA
:101F6000811540E2940758F4811551E0950708F077
:101F7000CEC08D3E910508F4C7C09065C9C0C1159B
:101F800080E4D80708F4C0C0DF70CE01906AC0C0FA
:101F9000811525E59207A8F4811534E5930708F02B
:101FA00095C0811543E5940708F07BC0811552E583
:101FB000950708F061C0D82FCC27CE01816F906AB9
:101FC000A7C0C11589E5D807A0F4C11528E5D20737
:101FD00008F082C0C11536E5D30708F095C08C2FF4
:101FE0000E9437118F7190E0D82FCC27CE019062DC
:101FF0008FC0C1154AE5D40708F474C0CE019056CD
:102000008115904208F080C08D2F8F710E9437118A
:10201000DD27D0628F71AE01582BCA0179C081E0F3
:1020200090E076C0C55AD0E0C754DE4F8881C82FF3
:10203000D0E0CE0190646CC074E0969587957A9557
:10204000E1F7282F23703C2F337081E090E002C02D
:10205000880F991F3A95E2F79C68AC01522B9A01C0
:102060009C2F9F709695969550E2959FE0011124C4
:10207000C9018C2B9D2B4CC08370992721E030E047
:1020800002C0220F331F8A95E2F79C2F96959695F2
:1020900080E2989FE0011124C22BD32BCE019C68D3
:1020A00037C08370992721E030E002C0220F331F30
:1020B0008A95E2F79C2F9695969540E2949FE001D1
:1020C0001124C22BD32BCE019A6822C0D82FCC2743
:1020D000CE01846F906A1CC0DC2FCC27CE01806FAC
:1020E000906A16C08C2F8F700E94371194E0D6959D
:1020F000C7959A95E1F7CF70D0E0DC2FCC27D06957
:102100009E01282BC90104C080E090E001C0CE01EF
:10211000DF91CF91089528E2829FC0011124FC0134
:1021200025E0729FE00DF11D1124E60FF11DEE0F69
:10213000FF1FE852FF4F8591949108950E948B10E4
:102140000E94790F08958238910569F1B0F48133C6
:10215000910509F46DC048F48932910509F463C012
:102160008A32910509F469C008958533910509F40F
:1021700055C089339105B9F00895833E910569F101
:1021800038F4803E9105B1F0823E910509F1089541
:10219000863E9105A9F1873E9105B9F1843E9105EE
:1021A00009F064C023C020918C0220FD4FC021FDA6
:1021B0004DC0089580918C0280FD44C080918D02B5
:1021C00080FF44C080918C0284FD42C083EE4DC0EC
:1021D00080918C0282FF38C0F5CF80918C0282FD05
:1021E00033C080918D0280FD31C0ECCF80918D0293
:1021F00081FF32C080918C0284FD2AC087EE35C0F9
:1022000080918C0283FF26C0F5CF80918C0283FDE4
:1022100021C080918D0281FD1FC0ECCF80918C0286
:1022200085FD1CC01DC080918C0285FD19C016C0A3
:1022300080918C0286FD16C017C080918C0286FDAD
:1022400013C010C089E311C082EE0FC080EE0DC034
:1022500080E00BC086EE09C084EE07C089E205C0AD
:1022600085E303C08AE201C081E390E00895909184
:102270008C0292FF0DC0282F2871283019F4877F17
:10228000846006C0282F2471243011F48B7F88606D
:1022900093FF0DC0282F2871283119F4877E84619F
:1022A00006C0282F2471243111F48B7E886120917F
:1022B0008D0220FF0DC0382F3871383019F4877F18
:1022C000816006C0382F3171313011F48E7F886003
:1022D00021FF0DC0282F2871283119F4877E8161D4
:1022E00006C0282F2171213111F48E7E886194FD62
:1022F000877E0895109288021092890210928A02B5
:1023000010928B020895CF92DF92EF92FF926B01B1
:102310007C010E94D01381110EC00E94021FC61AB8
:10232000D70AE80AF90AC0928802D0928902E0929C
:102330008A02F0928B02FF90EF90DF90CF90089589
:102340000F931F930E94D013882321F01F910F91A8
:102350000C94021F0E94021F0091880210918902B2
:1023600020918A0230918B02600F711F821F931F90
:102370001F910F91089580E008950C94E90DCF937B
:102380000E9445138FE39CE90197F1F700C000001C
:102390000E9445130E94E813811102C0C4E001C0ED
:1023A000C0E08C2F0E94091290E002C0959587959D
:1023B000CA95E2F780FF05C00E94BD11CF910C9431
:1023C0005F1FCF9108950C94BF110E94EF0D8111F2
:1023D00002C00E94970E0E94FA0D80933F020E9455
:1023E000020E90938D0280938C020E94E3110E9452
:1023F000FE0D682F70E080E090E00E94060860917A
:10240000DB017091DC018091DD019091DE010C9483
:102410003E08E82FF0E0E956FD4F808108950895C9
:1024200008950C9410120C9411120C9410120C9428
:1024300015120C9410120F931F93CF93DF9300D0BB
:1024400000D0CDB7DEB70E94D01360919F028823E1
:10245000E9F119821A821B821C82862F90E08E017C
:102460000F5F1F4FB80189569D4F0E9402148823A9
:1024700089F080918E0290E044E050E0B8018956E6
:102480009D4F0E948F2621E020934002892B69F402
:1024900010E019C0809140028823D1F384E0F80154
:1024A00011928A95E9F710924002E0918E02F0E0D5
:1024B000E956FD4F89819A81AB81BC8180839183EC
:1024C000A283B38311E00E94FD020DC070E0695643
:1024D0007D4F80918E0290E089569D4F0E948C1412
:1024E0000E94191210E0812F0F900F900F900F9003
:1024F000DF91CF911F910F910895CF93DF9344E027
:1025000051E0A1E0B0E020E030E0FA01E20FF31F7B
:1025100080818F3FA1F0E82FE295EF70F0E061A19C
:102520008F70ED0102C0CC0FDD1F8A95E2F7CE015E
:102530009C2F9095962391A392A1892B82A32F5F24
:102540003F4F2530310509F74B5F5F4FD1E04831F0
:102550005D07C9F6DF91CF9108950F931F93CF9335
:10256000DF93EC01062F10E085E0689FB001112495
:1025700040E050E0B1E0A0E0CA01860F971F8C5FF9
:102580009E4FFC0190819F3FA1F0292F22952F7033
:1025900030E0F90120A130E09F7002C03595279509
:1025A0009A95E2F720FD02C08B2F02C080E090E0F8
:1025B000A82BBB0F4F5F5F4F45305105E9F6F8017F
:1025C000EC0FFD1FA083DF91CF911F910F91089514
:1025D000CF93DF93CDB7DEB764970FB6F894DEBF25
:1025E0000FBECDBF80911801811125C084E1E6E4C2
:1025F000F1E0DE01119601900D928A95E1F7CE018E
:10260000019644E051E0BE016B5E7F4F20E030E078
:10261000FA01E20FF31FDC01A20FB31FAC91A083FC
:102620002F5F3F4F2530310599F705964B5F5F4F80
:102630008617970759F780911801811102C094E01D
:1026400001C090E090939F0284E0891B80938E02EA
:102650000E947D1288E0E7E9F2E0DF01982F1D92E9
:102660009A95E9F7EFE8F2E0DF011D928A95E9F724
:1026700084E00E94991364960FB6F894DEBF0FBEF3
:10268000CDBFDF91CF910C94FB02EF92FF920F939D
:102690001F93CF93DF93CDB7DEB728970FB6F8948B
:1026A000DEBF0FBECDBF8E010F5F1F4F88E0F80168
:1026B00011928A95E9F7F12C6F2DC8010E94AD1295
:1026C000F394F4E0FF12F8CF48E050E0B8018FE84F
:1026D00092E00E948F267C0121E0892B09F420E002
:1026E000E114F10441F088E0F801AFE8B2E00190B4
:1026F0000D928A95E1F760919F0270E069567D4FD7
:1027000044E08FE892E00E949A13EF2819F40E94A7
:102710001B1202C081E090E028960FB6F894DEBF4D
:102720000FBECDBFDF91CF911F910F91FF90EF9022
:1027300008950895FF920F931F93CF93DF938C0119
:10274000F62ED72FC42F222349F081E08093430235
:102750000E94F61E909342028093410280914302B0
:102760008823C1F080914102909142020E940E1F85
:10277000059780F0EF2DFD2FD8014C2F50E0CD01B3
:10278000801B910B841795071CF48D918193F7CFD3
:1027900010924302DF91CF911F910F91FF90089506
:1027A0008091460281110DC00E945426811102C001
:1027B00082E001C081E080934602823011F40E94E1
:1027C0004F2681E090914602913009F080E0089513
:1027D0000C94D0130E94E813809318010E94D01328
:1027E00081110C943A1408950E94D013811102C0F3
:1027F0000C943C14089581E0909147029A3008F0BF
:1028000080E008950F931F93CF93DF93EC018B012A
:10281000809147028A3038F4B801CE010E948A14B0
:1028200081111DC00AC080914402909145020E940E
:102830000E1F843F914080F715C0809147028F3F63
:1028400019F08F5F80934702809147028A3060F0D1
:102850000E94F61E909345028093440203C010929A
:10286000470202C080E001C081E0DF91CF911F915B
:102870000F9108950C94421C0C94451CDF92EF922A
:10288000FF920F931F93CF93DF937901C82F880F87
:10289000DD0B41155105A9F0FE0193E0EE0FFF1F7E
:1028A0009A95E1F7E75EFE4F81819281885B9D4FAB
:1028B000208130E04217530708F49A01A9010E94D1
:1028C0009C26CE010E942E1DD82E8823D1F0011502
:1028D0001105B9F083E0CC0FDD1F8A95E1F7FE0109
:1028E000E75EFE4F438150E00417150708F4A80186
:1028F000C75EDE4F6C817D81685B7D4FC7010E94A2
:102900009C268D2DDF91CF911F910F91FF90EF901D
:10291000DF9008950C94AD150C94C9150F931F9377
:10292000CF93DF9300D000D0CDB7DEB760915D02CA
:1029300070915E0280915F02909160020E941D1F63
:10294000643671058105910528F10E94A011DC0112
:10295000CB010296A11DB11D89839A83AB83BC83F1
:1029600000E010E020E030E044E050E0BE016F5FA6
:102970007F4F82E00E943E14182F882361F00E944E
:10298000021F60935D0270935E0280935F029093DA
:10299000600201C011E0812F0F900F900F900F90F7
:1029A000DF91CF911F910F910895AF92BF92CF9277
:1029B000DF92EF92FF920F931F93CF93DF937C01EF
:1029C0005B016A010E94FB13811103C001E010E06A
:1029D00002C00AE010E0C1E0D0E0F894B501C70100
:1029E000F60109957894811115C021960C171D07E1
:1029F00094F0CC9F9001CD9F300D300D112480E0DC
:102A000090E045E34A95F1F700000196821793079D
:102A1000C1F7E3CF81E0DF91CF911F910F91FF903C
:102A2000EF90DF90CF90BF90AF900895AF92BF929C
:102A3000CF92DF92EF92FF920F931F93CF93DF938A
:102A400000D000D01F92CDB7DEB75B01E090BC0193
:102A5000F090BD0101E010E09E012B5F3F4F40E090
:102A600050E060E070E080E00E943E14182F882360
:102A700009F43EC067018FEFC81AD80A6091590265
:102A800070915A0280915B0290915C020E941D1F1E
:102A9000643671058105910518F104E010E09E018E
:102AA0002F5F3F4F40E050E060E070E081E00E9427
:102AB0003E14182F64E070E0C6010E94A61891E051
:102AC0002D81281390E0192351F10E94021F609379
:102AD000590270935A0280935B0290935C0211C07A
:102AE00064E070E0C6010E94A6189D818913D5CFCD
:102AF000F70181819281A381B48189839A83AB8319
:102B0000BC83112361F089819A81AB81BC81809360
:102B1000550290935602A0935702B09358028091A9
:102B2000550290915602A0915702B0915802F501BA
:102B300080839183A283B383812F0F900F900F9096
:102B40000F900F90DF91CF911F910F91FF90EF9019
:102B5000DF90CF90BF90AF9008950F931F93CF93C6
:102B6000DF93EC018B0146E155E10E94D5148823E7
:102B700051F04EE854E1B801CE01DF91CF911F91A1
:102B80000F910C94D51480E0DF91CF911F910F919C
:102B900008950F931F93CF93DF93F894C091BC01D6
:102BA000D091BD01CE01019624E0FB01DC01019032
:102BB0000D922A95E1F764E070E00E94A6188883E0
:102BC0007894F8946D817E818F819885009151026F
:102BD00010915202209153023091540260177107F4
:102BE0008207930751F060935102709352028093D1
:102BF0005302909354020E9483117894DF91CF91F5
:102C00001F910F9108950E9415210E94DB0E0C94D4
:102C100021210E9425210E94710F0C943F210E94C6
:102C2000941E0E94FC200E94C70E0E9403160E9460
:102C300009160E94D10EFBCF8091670280FF06C06B
:102C40006091360170E0660F771F26C081FF04C0D7
:102C50006091360184E005C082FF07C060913601B3
:102C600088E0689FB001112417C0909166029923F3
:102C7000D1F060913501961788F72091360188E0F0
:102C8000289F90011124929FA001939F500D112421
:102C900070E0CA010E9461266038710540F4611538
:102CA000710519F406C068E070E0862F08958FE77B
:102CB000089581E008958091670280FF08C06091C7
:102CC000320170E0759567957595679521C081FF14
:102CD00006C06091320170E07595679519C082FF5A
:102CE00004C06091320170E010C090916502992398
:102CF00099F0609131019617A0F780913201899F78
:102D0000C001112470E00E9461266038710540F412
:102D10006115710519F406C061E070E0862F089511
:102D20008FE7089581E008958D3E21F40E941C16DE
:102D3000819504C08E3E29F40E941C1680936B027C
:102D400008958F3E21F40E941C16819504C0803F97
:102D500029F40E941C1680936A020895893F19F491
:102D60000E945B1605C08A3F31F40E945B16819574
:102D700080936C0208958B3F21F40E945B1681952D
:102D800004C08C3F29F40E945B1680936D02089565
:102D90009FE0980F983078F421E030E0A90102C05C
:102DA000440F551F9A95E2F7CA0190916902892B49
:102DB0008093690208958D3F21F4809167028160BC
:102DC0000BC08E3F21F480916702826005C08F3F67
:102DD00029F48091670284608093670208958D3E94
:102DE00039F490916B0297FF35C010926B0259C075
:102DF0008E3E29F490916B021916BCF32BC0909172
:102E00006A028F3E29F497FF25C010926A0249C0DA
:102E1000803F19F41916CCF31DC090916C02893FC4
:102E200029F41916BCF410926C023BC08A3F19F4C5
:102E300097FF10C0F8CF8B3F39F490916D0297FF48
:102E400009C010926D022DC08C3F21F490916D024B
:102E50001916BCF39FE0980F983080F421E030E021
:102E6000A90102C0440F551F9A95E2F7CA01809547
:102E70009091690289238093690213C08D3F21F4E8
:102E8000809167028E7F0BC08E3F21F48091670294
:102E90008D7F05C08F3F29F4809167028B7F8093DF
:102EA000670280916A02811106C080916B028111D4
:102EB00002C01092660280916C02811106C080915E
:102EC0006D02811102C01092650208950E94F61EE3
:102ED00020916A02211104C020916B02222321F06B
:102EE000909364028093630220916C02211104C0CC
:102EF00020916D02222321F090936202809361025F
:102F000088E692E00C94D41DEF92FF920F931F93EA
:102F1000CF93DF9300D000D000D0CDB7DEB786E0EE
:102F2000E8E6F2E0DE01119601900D928A95E1F754
:102F3000E0906A02F0906B0200916C0210916D02B9
:102F400010926A0210926B0210926C0210926D0243
:102F5000E11003C0FF2009F45DC0809163029091ED
:102F600064020E940E1FAC0190916602992339F011
:102F70002091370130E02417350758F04BC02091DD
:102F800038018AE0289F900111242417350718F092
:102F900041C09F3F19F09F5F90936602EE2061F061
:102FA0000E941C161E1414F09FEF01C091E0989F20
:102FB000902D112490936A02FF2061F00E941C164C
:102FC0001F1414F09FEF01C091E0989F902D1124E1
:102FD00090936B0230916A023323E1F020916B02EF
:102FE0002223C1F045EB3403C0011124992319F0C9
:102FF00090936A0203C081E080936A0235EB230359
:10300000C0011124992319F090936B0203C081E051
:1030100080936B02011103C0112309F45DC08091FC
:103020006102909162020E940E1FAC0190916502B4
:10303000992339F02091330130E02417350758F0F7
:103040004BC0209134018AE0289F9001112424175D
:10305000350718F041C09F3F19F09F5F90936502BC
:10306000002361F00E945B16101614F09FEF01C060
:1030700091E0989F902D112490936C02112361F0A0
:103080000E945B16111614F09FEF01C091E0989F0B
:10309000902D112490936D0230916C023323E1F056
:1030A00020916D022223C1F045EB3403C0011124AD
:1030B000992319F090936C0203C081E080936C0215
:1030C00035EB2303C0011124992319F090936D026D
:1030D00003C081E080936D0280916A0281110BC070
:1030E00080916B02811107C080916C02811103C035
:1030F00080916D0281110E946617EB82FC820D8324
:103100001E8386E0FE013196A8E6B2E001900D92A2
:103110008A95E1F726960FB6F894DEBF0FBECDBFB5
:10312000DF91CF911F910F91FF90EF900895E8E606
:10313000F2E086E0DF011D928A95E9F710926602BF
:10314000109265021092670208950895FC01680FBD
:10315000791F8FEF91E3E617F70771F0219182272E
:1031600028E030E087FF03C0880F892701C0880F5F
:1031700021503109B9F7EFCF0895CF93DF9397FF2F
:103180000DC0FB012281222349F0EC010E94FB18B3
:10319000CE019F770E946E190E94481981E0DF914D
:1031A000CF9108959091A102923069F48A3040F451
:1031B00090E009966AE070E00E946126875A01C09B
:1031C00086500C94F4040C94D6038CE090E00E949A
:1031D000A52690E0A0E0B0E08093A1029093A20227
:1031E000A093A302B093A40208956091A1028CE081
:1031F00090E00C94B3260E94C61D86958170809342
:10320000A6020E94C61D81708093A0028091A10237
:10321000813039F48091A602882319F089E30E9455
:10322000F4040E94030D8093A5020E94160D809164
:10323000A102813071F048F0823081F0843009F5CC
:1032400086EE0E94F40488E11AC082EE0E945304C4
:1032500018C088E193E00E94930213C08091A002FD
:10326000811103C083E50E94F40482EE0E9453049E
:103270008FE39CE90197F1F700C0000087E50E9409
:10328000F4048FE39CE90197F1F700C00000089572
:103290008091A102813059F030F0823089F0843081
:1032A000C9F488E215C082EE0E94A90413C08CE222
:1032B0000E94F4048091A602882361F089E308C08B
:1032C00082EE0E94A9048091A002811103C083E5CF
:1032D0000E94F4048091A5020C94130D0F931F9388
:1032E000CF93DF938C01CCE0D0E0C8010C2E02C05C
:1032F000969587950A94E2F78F700E94D2182497CA
:10330000CC3F8FEFD80789F7DF91CF911F910F91B5
:1033100008950F931F93CF93DF93EC018B01FB0173
:103320008281882361F00E94030DCE01825E9C455C
:103330008530910520F48093A1020E94F518B80110
:10334000CE01DF91CF911F910F910C94BD18CF93B7
:10335000DF93EC01FB018281882309F43CC1C43076
:10336000FDE5DF0760F4CB3F9CE5D90788F49E01BB
:1033700022503C452431310508F02EC109C0C23627
:10338000EDE5DE0729F0C63AFDE5DF0709F024C1C7
:103390000E94020E90938D0280938C02C1318CE5C5
:1033A000D80709F4C6C008F042C0C930ECE5DE0712
:1033B00009F49BC000F5C5308CE5D80709F485C039
:1033C00078F4C330ECE5DE0709F478C008F07AC081
:1033D000C230DC4509F0F5C080918C028160EFC0FD
:1033E000C7309CE5D90709F478C008F07AC080910D
:1033F0008C028061E4C0CD30FCE5DF0709F487C0B2
:1034000058F4CB309CE5D90709F479C008F07BC0AB
:1034100080918C0288606FC0CF30FCE5DF0709F433
:1034200080C008F082C080918C02877FC8C0CE3FE8
:103430009CE5D90709F471C000F5C531FCE5DF074B
:1034400009F485C068F4C3319CE5D90709F475C057
:1034500008F095C00E94AE0780918C028F77AFC0B4
:10346000CC3FFCE5DF07A9F108F054C0CB3FDC45B9
:1034700009F0A7C080918D0240C0C230EDE5DE07A3
:1034800009F489C058F4C1158DE5D80709F45AC06C
:1034900008F069C080918D0282602FC0C236EDE5D0
:1034A000DE0709F47CC0C63AFDE5DF0709F481C0F8
:1034B000C330DD4509F085C080E06EC080918C028C
:1034C00082607DC080918C0216C080918C028860E1
:1034D00076C080918D0282604FC080918C028062A4
:1034E0006EC080918C0280646AC00E94AE07809199
:1034F0008C02806864C0846062C081603DC080913D
:103500008C028E7F5CC080918C028D7F58C0809130
:103510008C0216C080918D0218C080918D028D7F23
:103520002BC080918C028F7E4AC080918C028F7D4F
:1035300046C080918C028F7B42C080918C02877F35
:103540008B7F3DC080918D028D7F8E7F15C08091D5
:103550008C0282FB222720F991E0922790FB82F9CE
:1035600090FB83F92CC080918D02982F90959170DB
:103570008E7F892B90FB81F980938D0222C00E945F
:10358000AE0780918C0287FB222720F991E09227D9
:1035900090FB87F914C081E00E94990E12C08091BF
:1035A0008C0284FB222720F991E0922790FB84F97A
:1035B00006C080918C02982F909590FB80F98093A3
:1035C0008C0280918C0290918D020E94130E0E94B9
:1035D000AE0780E001C081E0DF91CF910895CF93E5
:1035E000DF9386319C4541F5EB010E94030D982F36
:1035F0008A812091020130910301882379F09A7A1F
:1036000081E009F480E080936E02911102C069E2CA
:1036100001C065E3C9010E94501E0AC080916E027C
:10362000811102C069E201C065E3C9010E94521E16
:103630000E94480D80E001C081E0DF91CF910895A4
:103640000F931F93CF93DF93C42FD22FFC0182815E
:103650008823C9F0409371020E94F61E9093700275
:1036600080936F0280E28C0F883008F057C0C770DB
:1036700081E001C0880FCA95EAF7DF91CF911F91D1
:103680000F910C94FD0480917102481330C0809119
:103690006F02909170020E940E1F883C910538F5D0
:1036A00010E21D0FCD17B9F080E28C0F883040F486
:1036B000C77081E001C0880FCA95EAF70E9404052F
:1036C000183028F581E09D2F977001C0880F9A95DA
:1036D000EAF70E94FD04802F0E94F4041830F0F4F1
:1036E000D77081E001C0880FDA95EAF70AC080E25E
:1036F0008C0F883098F4C77081E001C0880FCA959C
:10370000EAF7DF91CF911F910F910C940405802F60
:10371000DF91CF911F910F910C94F404DF91CF9121
:103720001F910F9108950F939C01CB01243F4CE50D
:10373000340731F188F4293DFCE53F07D9F02A3DF3
:103740004CE5340779F1283D3C45A9F506E221EE28
:1037500041EE68ED7CE52BC0263FFCE53F07E1F03C
:10376000A8F0273F3C4539F507E225EE46EE67EF26
:103770007CE51DC007E225EE45EE69ED7CE517C04E
:1037800006E221EE40EE64EF7CE511C007E225EE93
:1037900044EE65EF7CE50BC006E221EE42EE66EFFB
:1037A0007CE505C008E221E045EE6AED7CE50E947B
:1037B000201B80E008C0FC018281882319F0109250
:1037C000710201C081E00F9108958EE14A9B02C011
:1037D0008150E1F74A9BFECF08955A9880E28A957E
:1037E000F1F75A9A0895FC012AE02A95F1F728E0AA
:1037F00090E080E031E040E14A95F1F7880F4A9B84
:1038000002C08160932700C0000040E14A95F1F7B3
:10381000215089F720E12A95F1F729B100C0000075
:1038200030E13A95F1F722FB222720F992272081F7
:10383000920F90830895EF92FF920F931F93CF936F
:10384000DF931F92CDB7DEB719828C017C01E60EA3
:10385000F11C0E151F0551F00E94E51BCE010196CB
:103860000E94F31BF80181938F01F3CF81E09981CE
:10387000911180E00F90DF91CF911F910F91FF90F8
:10388000EF900895529A5A9A089552985A9AEA9A3D
:10389000E9E6F0E080818F7C80830895615091E0BB
:1038A00001C0990F6A95EAF720E031E0992361F0B1
:1038B000492F482319F05A9A232701C05A9840E209
:1038C0004A95F1F79695F2CF222311F05A9A01C04A
:1038D0005A9880E28A95F1F75A980895FF920F93CB
:1038E0001F93CF93DF93EC018C01060F111DC017BE
:1038F000D10741F0F9900E94ED1B68E08F2D0E94E6
:103900004E1CF5CFDF91CF911F910F91FF9008953D
:103910001F920F920FB60F9211240F931F932F93A4
:103920003F934F935F936F937F938F939F93AF9347
:10393000BF93EF93FF93CF93DF931F92CDB7DEB783
:1039400019820E94E51BCE0101960E94F31B082FED
:10395000069506950695902F96959570202F2570C3
:10396000920F292F237096959695920F8770891341
:103970005FC0898181115CC0043008F059C080E1CA
:103980008A95F1F75A9A529A82E08A95F1F700C027
:103990005A9888E0089F80011124D801A75EBE4F85
:1039A0001696ED91FC9117973097A9F06091BC01A4
:1039B0007091BD0114962D913C911597260F371FDC
:1039C00011968D919C911297680F791F13964C91C7
:1039D00013978C910995F801E75EFE4F638166238A
:1039E00051F08091BC019091BD0124813581820FFD
:1039F000931F0E946E1C0E94ED1B80E18A95F1F7D7
:103A00005A9852985A9A80E18A95F1F7F801E75E40
:103A1000FE4F6081662351F08091BC019091BD0101
:103A200021813281820F931F0E941B1C0E94E51B83
:103A30000F90DF91CF91FF91EF91BF91AF919F9147
:103A40008F917F916F915F914F913F912F911F9136
:103A50000F910F900FBE0F901F9018950F931F930B
:103A6000CF93DF93843091050CF06DC0EC01F89496
:103A7000529A5A9885E08A95F1F700009C2F969506
:103A800095702C2F2570920F892F8370969596959F
:103A900023E0CC0FDD1F2A95E1F7980F8E01092B4B
:103AA0000E94ED1B84E08A95F1F700C068E0802F4A
:103AB0000E944E1C80E18A95F1F752985A9A4A99D1
:103AC00002C000C0FCCF87E090E04A9B08C001978D
:103AD00021F4529A5A9A789436C000C0F6CFFE016B
:103AE000E75EFE4F6381662381F08091BC01909177
:103AF000BD0124813581820F931F0E941B1C8111FF
:103B000004C0529A5A9A78941FC00E94E51B80E222
:103B10008A95F1F75A98529A80E18A95F1F7C75E33
:103B2000DE4F6881662351F08091BC019091BD0108
:103B300029813A81820F931F0E946E1C0E94ED1B07
:103B4000789481E001C080E0DF91CF911F910F91C7
:103B500008959093BF018093BE01089590937802D9
:103B60008093770208950E94D013811103C0809141
:103B700072020895E0917702F0917802309721F077
:103B80000190F081E02D099480E008950E94B31D1A
:103B90000895E0917702F0917802309721F0028049
:103BA000F381E02D09940895E0917702F091780275
:103BB000309739F022E0DC012C930480F581E02D70
:103BC00009940895209175023091760228173907DB
:103BD00071F09093760280937502E0917702F091F4
:103BE0007802309721F00680F781E02D099408953E
:103BF00020917302309174022817390771F0909365
:103C0000740280937302E0917702F091780230970A
:103C100021F00084F185E02D09940895FC0132968D
:103C200097E080E0915029F021912223D9F38F5F12
:103C3000F9CF0895662349F0FC0132960896219148
:103C4000621729F0E817F907D1F780E0089581E0BD
:103C500008959C01FC0132969FEF80E04191461748
:103C600089F09F3F19F4411101C0982F8F5F863072
:103C7000A9F79F3F39F0F901E90FF11D97FDFA957A
:103C80006283089508959C012A5F3F4FFC014281A1
:103C9000461301C01282019682179307B9F708955F
:103CA0000C94291E0C94431E029626E0FC011192EE
:103CB0002A95E9F7089508950C945B1E83E080939C
:103CC00079020C945C1E811102C081E001C082E087
:103CD000809379020C945C1E0C94631E81E08093A7
:103CE00079020C945C1E0C946E1E08950C94751E43
:103CF0000C94761E0C94751E0C94751E0C94751EF7
:103D0000CF930E947C1E0E9445130E947A1EC0E041
:103D10008C2F0E940912811104C0CF5FC830C1F7F7
:103D200001C081E0CF91089508951F920F920FB6C0
:103D30000F9211248F939F93AF93BF9380917A0238
:103D4000811113C08091A7029091A802A091A902AD
:103D5000B091AA024196A11DB11D8093A702909334
:103D6000A802A093A902B093AA02BF91AF919F911C
:103D70008F910F900FBE0F901F9018958091AF02FA
:103D8000843031F10E94680310927A0220E488E1C5
:103D900090E00FB6F894A895809360000FBE209332
:103DA000600083B7817F846083BF83B7816083BFF6
:103DB0007894889583B78E7F83BF0FB6F894A895C3
:103DC00080916000886180936000109260000FBE57
:103DD00008950E94AE070C946C0382E084BD93E0CA
:103DE00095BD9AEF97BD80936E0008952FB7F89414
:103DF0008091A7029091A802A091A902B091AA0275
:103E00002FBF08952FB7F8946091A7027091A80270
:103E10008091A9029091AA022FBF08959C014FB7EB
:103E2000F8948091A7029091A802A091A902B09164
:103E3000AA024FBF821B930B0895CF92DF92EF929D
:103E4000FF922FB7F894C090A702D090A802E090FC
:103E5000A902F090AA022FBFA7019601261B370BDB
:103E6000480B590BCA01B901FF90EF90DF90CF903A
:103E7000089578941F920F920FB60F9211248F938A
:103E80009F93AF93BF938091A7029091A802A091B6
:103E9000A902B091AA020196A11DB11D8093A702AB
:103EA0009093A802A093A902B093AA02BF91AF91E8
:103EB0009F918F910F900FBE0F901F90189581E0EA
:103EC0008093E00080E28093D8001092C9008FE1D7
:103ED0009EE40197F1F700C0000087E090EBDC0161
:103EE0008093B8029093B902A093BA02B093BB0238
:103EF0009CE088E10FB6F894A895809360000FBE0F
:103F000090936000FFCF809186020895089522E08B
:103F10002093E9002FEF3091E800215035FD06C0D5
:103F200035ED3A95F1F700002111F5CF2091E80029
:103F300025FF0BC040E050E066E070E00E94B12138
:103F40008091E8008E778093E8000895CF93DF9307
:103F500021E02093E9002FEF3091E800215035FD5A
:103F600006C035ED3A95F1F700002111F5CF20910B
:103F7000E80025FF14C0EC0140E050E068E070E08C
:103F80000E94B1218091E8008E778093E80088E05C
:103F9000FE01AEE7B2E001900D928A95E1F7DF9164
:103FA000CF91089580937B0270937D0260937C0291
:103FB0008091AF02843001F582E08093E9008FEFB9
:103FC0009091E800815095FD06C095ED9A95F1F726
:103FD00000008111F5CF8091E80085FF0DC040E021
:103FE00050E063E070E08BE792E00E94B1218091A5
:103FF000E8008E778093E8000895BC0184E00C947B
:10400000D21FBC0183E00C94D21F8091AE028111BB
:1040100009C00E9442230E949F238091E200846095
:104020008093E20008951092AE0208950C94731EDE
:104030006091AB0281E0611101C080E00C945E1ED2
:104040009091AF0281E0943009F080E06091AB0282
:104050000C94631E42E061EC81E00E94BB2242E2CC
:1040600061EC82E00E94BB229091AF0281E094302B
:1040700009F080E06091AB020C946C1E8091B1025B
:10408000833009F461C030F4813071F0823009F47A
:104090009AC008958A3009F486C08B3009F46CC048
:1040A000893009F0A8C020C08091B002813A09F09F
:1040B000A2C08091E800877F8093E8008091B402DD
:1040C0009091B502892B21F468E08EE792E003C05D
:1040D00060E080E090E070E00E94FC218091E800C8
:1040E0008B778093E80008958091B002813209F0C7
:1040F00082C08091B4029091B502029708F07BC013
:104100008091E800877F8093E8008091E80082FD3D
:1041100005C08091AF028111F8CF6DC02091F300EE
:104120008091F20090E0922B029731F48091F1009F
:10413000813011F0863021F48091F1008093860265
:104140008091E8008B7753C08091B002813A09F0EA
:1041500052C08091B4029091B502892B09F04BC0F6
:104160008091E800877F8093E8008091E80080FFDD
:10417000FCCF8091450136C08091B0028132D9F5E3
:104180008091B4029091B502892BA9F58091E80045
:10419000877F8093E8000E94F0228091B202809392
:1041A00045010C94AE078091B002813221F58091D7
:1041B000E800877F8093E8000E94F0228091B3029C
:1041C0008093870208958091B002813AA1F4809192
:1041D000E800877F8093E8008091E80080FFFCCFB3
:1041E000809187028093F1008091E8008E77809320
:1041F000E8000C94F022089584B7877F84BF0FB63F
:10420000F894A89580916000886180936000109276
:1042100060000FBE90E080E80FB6F89480936100D4
:10422000909361000FBE0C946E1E0E9442230E9468
:104230009F23E2EEF0E080818460808378940C9488
:10424000342689E391E00C94AE1D8091AF02853055
:10425000A9F48091AF02853079F40E94BE1E80914E
:10426000AD028823B1F30E94801E882391F30E943F
:104270009B210E94AE07EDCF0C94E91E089508958E
:104280000C944221292F332723303105C9F060F4E3
:104290002130310581F02230310509F044C08BE333
:1042A00090E026EE32E043C021323105E1F02232C7
:1042B000310549F138C082E190E021E233E037C0B6
:1042C00099278130910549F028F0029761F5E8ECD3
:1042D000F2E005C0E2EEF2E002C0E8EDF2E0849127
:1042E00090E09F0124C06115710541F061307105B6
:1042F000D1F489E090E021E133E019C089E090E059
:1043000028EF32E014C06115710541F0613071058C
:1043100051F48BE790E023E333E009C080E490E0C0
:104320002EEA33E004C080E090E020E030E0FA01C3
:1043300031832083089580E189BD82E189BD09B47C
:1043400000FEFDCF8091D8008F7D8093D8008091B2
:10435000E00082608093E0008091E00081FDFCCF6E
:104360000895CF92DF92EF92FF920F931F93CF9316
:10437000DF93EC018B017A010E940F23811133C07E
:10438000E114F10439F0F70180819181081B190BC8
:10439000C80FD91FC12CD12C0115110519F180911D
:1043A000E80085FD16C08091E8008E778093E800D4
:1043B000E114F10449F0F70180819181C80ED91E02
:1043C000D182C08285E00FC00E940F23882321F391
:1043D0000AC089918093F10001501109FFEFCF1AB3
:1043E000DF0ADACF80E0DF91CF911F910F91FF902C
:1043F000EF90DF90CF9008952091B6023091B702F0
:104400002617370748F06115710539F42091E80047
:104410002E772093E80001C0B901FC0120E061156E
:10442000710579F18091AF028823F1F18530F1F1C6
:104430008091E80083FD3CC08091E80082FD2EC0A1
:104440008091E80080FFEBCF2091F3008091F20093
:1044500090E0922B6115710551F08830910538F488
:1044600021912093F100615071090196F3CF21E071
:10447000089709F020E08091E8008E778093E800AB
:10448000CECF2111CFCF0AC08091AF02882361F037
:10449000853061F08091E80083FD0AC08091E800DA
:1044A00082FFF2CF80E0089582E0089583E00895CE
:1044B00081E008952091B6023091B70226173707A0
:1044C00048F06115710539F42091E8002E772093AA
:1044D000E80001C0B901FC0120E06115710591F10E
:1044E0008091AF02882309F440C0853009F43FC0B1
:1044F0008091E80083FD3DC08091E80082FD2FC0DF
:104500008091E80080FFE9CF2091F3008091F200D4
:1045100090E0922B6115710559F08830910540F4B7
:1045200024912093F1003196615071090196F2CFE8
:1045300021E0089709F020E08091E8008E778093D1
:10454000E800CBCF2111CCCF0AC08091AF028823E5
:1045500061F0853061F08091E80083FD0AC08091B0
:10456000E80082FFF2CF80E0089582E0089583E0C2
:10457000089581E00895982F973068F59093E900A9
:10458000981739F07091EC002091ED005091F000F7
:1045900003C0242F762F50E021FD02C09F5FECCF97
:1045A0003091EB003E7F3093EB003091ED003D7F8A
:1045B0003093ED003091EB0031603093EB0070935D
:1045C000EC002093ED005093F0002091EE0027FDC9
:1045D000E5CF80E008958F708093E90081E0089531
:1045E0008091B00287FF11C08091E80082FD05C074
:1045F0008091AF028111F8CF11C08091E8008B77D4
:104600000BC08091AF02882349F08091E80080FFC1
:10461000F8CF8091E8008E778093E800089520918C
:10462000E4003091E50095E64091EC00842F817024
:1046300040FF23C08091E80080FD1DC08091AF0243
:10464000882399F0853099F08091EB0085FD11C0A9
:104650004091E4005091E5002417350729F391506B
:1046600011F09A01E1CF84E0089582E0089583E09B
:10467000089581E0089580E008954091E80042FFA8
:10468000DDCF08950E94B0230E94B823E0EEF0E051
:10469000808181608083E8EDF0E080818F77808386
:1046A00019BCA7EDB0E08C918E7F8C9380818F7EBA
:1046B00080831092AE0208950F931F93CF93DF93E0
:1046C0000E94B0230E94B823C8EDD0E088818F7784
:1046D000888388818068888388818F7D888319BCDE
:1046E0001092AF021092AB021092AD021092AC0287
:1046F00000EE10E0F80180818B7F808388818160EB
:10470000888342E060E080E00E94BB22E1EEF0E0BE
:1047100080818E7F8083E2EEF0E080818160808303
:10472000808188608083F80180818E7F808388818A
:1047300080618883DF91CF911F910F910895E8EDFB
:10474000F0E080818F7E8083E7EDF0E08081816002
:10475000808384E082BF81E08093AE020C945C236E
:10476000E8EDF0E080818E7F80831092E200089572
:104770001092DA001092E10008951F920F920FB686
:104780000F9211242F933F934F935F936F937F93D7
:104790008F939F93AF93BF93EF93FF938091E1002B
:1047A00082FF0BC08091E20082FF07C08091E10090
:1047B0008B7F8093E1000E9433268091DA0080FF96
:1047C0001FC08091D80080FF1BC08091DA008E7FCF
:1047D0008093DA008091D90080FF0DC080E189BD0F
:1047E00082E189BD09B400FEFDCF81E08093AF0274
:1047F0000E94052005C019BC1092AF020E94132030
:104800008091E10080FF19C08091E20080FF15C017
:104810008091E2008E7F8093E2008091E2008061CF
:104820008093E2008091D80080628093D80019BC08
:1048300085E08093AF020E9418208091E10084FF00
:1048400030C08091E20084FF2CC080E189BD82E10C
:1048500089BD09B400FEFDCF8091D8008F7D809383
:10486000D8008091E1008F7E8093E1008091E2008A
:104870008F7E8093E2008091E20081608093E2006D
:104880008091AB02882311F084E007C08091E3009F
:1048900087FD02C081E001C083E08093AF020E94E7
:1048A00020208091E10083FF29C08091E20083FFF6
:1048B00025C08091E100877F8093E10082E08093B2
:1048C000AF021092AB028091E1008E7F8093E100F5
:1048D0008091E2008E7F8093E2008091E20080610F
:1048E0008093E20042E060E080E00E94BB22809181
:1048F000F00088608093F0000E941620FF91EF91F5
:10490000BF91AF919F918F917F916F915F914F91E7
:104910003F912F910F900FBE0F901F9018951F92EF
:104920000F920FB60F9211242F933F934F935F93E3
:104930006F937F938F939F93AF93BF93CF93DF93A7
:10494000EF93FF93C091E900CF708091EC00D82FD6
:10495000D17080FDD0E81092E9008091F000877F4F
:104960008093F00078940E94D3241092E900809103
:10497000F00088608093F000CD2BCF70C093E900E9
:10498000FF91EF91DF91CF91BF91AF919F918F9167
:104990007F916F915F914F913F912F910F900FBE3B
:1049A0000F901F9018951F93CF93DF93CDB7DEB76D
:1049B000AA970FB6F894DEBF0FBECDBFE0EBF2E0D2
:1049C0008091F100819322E0E83BF207C9F70E9451
:1049D0003E208091E80083FF2EC18091B00290912B
:1049E000B102492F50E04A30510508F024C1FA01C4
:1049F000EE59FF4F0C947526803821F0823809F06B
:104A00001AC108C08091AC029091AD02992389F03F
:104A100082600FC08091B4028F70873008F00BC1A4
:104A20008093E9008091EB0085FB882780F9109244
:104A3000E9009091E800977F9093E8008093F1005F
:104A40001092F100D1C0282F2D7F09F0F4C08823E7
:104A500019F0823061F0EFC08091B202813009F02C
:104A6000EAC0933009F080E08093AD022EC08091BF
:104A7000B20281112AC08091B4028F702FEF280FEB
:104A8000263008F0D8C08093E9002091EB0020FF89
:104A90001CC0933021F48091EB00806214C090918F
:104AA000EB0090619093EB0021E030E0A90102C09F
:104AB000440F551F8A95E2F74093EA001092EA00EE
:104AC0008091EB0088608093EB001092E900809168
:104AD000E800877F8093E8000E94F022ACC081113B
:104AE000AAC01091B2021F778091E3008078812BD9
:104AF0008093E3008091E800877F8093E8000E9424
:104B0000F0228091E80080FFFCCF8091E300806874
:104B10008093E300111102C082E001C083E0809322
:104B2000AF0289C08058823008F085C08091B202FF
:104B30009091B3028C3D53E0950779F583E08A8329
:104B40008AE289834FB7F894DE01139620E03EE0B5
:104B500051E2E32FF0E050935700E49120FF03C0AF
:104B6000E295EF703F5FEF708E2F90E0EA3010F02B
:104B7000C79601C0C0968D939D932F5F243149F74E
:104B80004FBF8091E800877F8093E8006AE270E081
:104B9000CE0101960E94FC2116C06091B402709172
:104BA000B502AE014F5F5F4F0E944021BC01892BCF
:104BB00009F441C09091E800977F9093E8008981C3
:104BC0009A810E945A228091E8008B778093E800B6
:104BD00032C0803881F58091E800877F8093E800BB
:104BE0008091AB028093F1008091E8008E7772CFC4
:104BF000811121C08091B2029091B302992702974E
:104C0000D4F48091E800877F8093E8008091B2021D
:104C10008093AB020E94F0228091AB02811106C00A
:104C20008091E30087FD02C081E001C084E08093B1
:104C3000AF020E942A208091E80083FF0AC0809181
:104C4000E800877F8093E8008091EB00806280938A
:104C5000EB00AA960FB6F894DEBF0FBECDBFDF9172
:104C6000CF911F9108950895CF938091AF0288232B
:104C7000A1F0C091E900CF709091EC00892F817074
:104C800090FD80E8C82B1092E9008091E80083FD38
:104C90000E94D324CF70C093E900CF9108950E9461
:104CA00042231092AF020895E8EDF0E08081806128
:104CB00080838AE18A95F1F700C08091D9008170E4
:104CC000089597FB072E16F4009407D077FD09D0BE
:104CD0000E947B2607FC05D03EF4909581959F4F5E
:104CE0000895709561957F4F0895EE0FFF1F059011
:104CF000F491E02D0994AA1BBB1B51E107C0AA1F28
:104D0000BB1FA617B70710F0A61BB70B881F991F6C
:104D10005A95A9F780959095BC01CD010895FB01A6
:104D2000DC0104C08D910190801921F44150504064
:104D3000C8F7881B990B0895FB01DC0102C00190A4
:104D40000D9241505040D8F70895F999FECF92BD89
:104D500081BDF89A992780B50895A8E1B0E042E0B6
:104D600050E00C94D926262FF999FECF92BD81BD33
:104D7000F89A019700B4021639F01FBA20BD0FB699
:104D8000F894FA9AF99A0FBE08950396272F0E9475
:104D9000B4260E94B326252F0E94B426242F0C94FB
:104DA000B4260196272F0E94B4260C94B326DC016A
:104DB000CB01FC01F999FECF06C0F2BDE1BDF89A26
:104DC000319600B40D9241505040B8F70895F894D0
:024DD000FFCF13
:104DD200C8002502C6F7F6F5F431333236939190C6
:104DE2009466973435FFFFFF0100000001000000C8
:104DF20000000000040100000004050000000000A3
:104E020000280850011E0A1401831FA61F871F01D4
:104E120020FD1F861F01F4F5F6F7C69336323331B3
:104E220097669490913534FFFFFFE200E900EA00B3
:104E3200B500B600B700CD008301CC008A01920113
:104E420094012102230224022502260227022A02B9
:104E5200B300B4006F007000818283E200E900EACF
:104E620000B500B600B700CD008301CC008A0192E4
:104E72000194012102230224022502260227022A8A
:0E4E820002B300B4006F00700081828348020A
:00000001FF
